:020000040800F2
:100000000028002061110008F1100008F710000816
:10001000FD1000080311000809110008000000008D
:100020000000000000000000000000000F110008A8
:100030001B11000800000000271100083311000800
:10004000A9110008A9110008A9110008A9110008A8
:10005000A9110008A9110008A9110008A911000898
:10006000A9110008A9110008A9110008A911000888
:10007000A9110008A9110008A9110008A911000878
:10008000A9110008A9110008A9110008A911000868
:10009000A9110008A9110008A9110008A911000858
:1000A000A9110008A9110008A9110008A911000848
:1000B00041110008A911000800000000A911000862
:1000C000A91100080000000000000000A9110008AC
:1000D00000000000A9110008A9110008000000009C
:1000E000A9110008A9110008A911000800000000CA
:1000F0000000000000000000000000000000000000
:0C01000000000000000000005FF808F1A3
:10010C0010B5054C237833B9044B13B10448AFF345
:10011C0000800123237010BD280000200000000087
:10012C00AC27000808B5034B1BB103490348AFF3D8
:10013C00008008BD000000002C000020AC27000847
:10014C0080B485B000AF03463960FB80144B1A684D
:10015C003B681A44134B83FB02135910D317C91A6B
:10016C000B46DB000B44D31ABB60BB68082B02D1D7
:10017C000023FB6008E0FA88BB68C3F10F0342FA66
:10018C0003F303F00103FB60FB68012B0CBF01239D
:10019C000023DBB218461437BD4680BC704700BF45
:1001AC005C000020398EE33880B582B000AF7860F7
:1001BC007B68072B00F2568301A252F823F000BF94
:1001CC00ED010008BB020008890300086104000867
:1001DC002F050008FD050008D5060008A307000838
:1001EC009A4B1B8800211846FFF7AAFF03461A46B4
:1001FC000421974801F0BEFA944B1B880121184644
:10020C00FFF79EFF03461A460821914801F0B2FA07
:10021C008E4B1B8802211846FFF792FF03461A46A5
:10022C004FF480618A4801F0A5FA884B1B880321A2
:10023C001846FFF785FF03461A464FF400618448C1
:10024C0001F098FA814B1B8804211846FFF778FFC0
:10025C0003461A464FF480517D4801F08BFA7B4BD4
:10026C001B8805211846FFF76BFF03461A464FF40F
:10027C000051774801F07EFA744B1B880621184612
:10028C00FFF75EFF03461A464FF48041704801F0B9
:10029C0071FA6E4B1B8807211846FFF751FF034676
:1002AC001A464FF400416A4801F064FADBE2674BEE
:1002BC005B8800211846FFF743FF03461A460421CA
:1002CC00634801F057FA614B5B8801211846FFF730
:1002DC0037FF03461A4608215D4801F04BFA5B4B89
:1002EC005B8802211846FFF72BFF03461A464FF492
:1002FC008061574801F03EFA544B5B880321184645
:10030C00FFF71EFF03461A464FF40061504801F0F8
:10031C0031FA4E4B5B8804211846FFF711FF034658
:10032C001A464FF480514A4801F024FA474B5B8837
:10033C0005211846FFF704FF03461A464FF40051F7
:10034C00434801F017FA414B5B8806211846FFF72A
:10035C00F7FE03461A464FF480413D4801F00AFA75
:10036C003A4B5B8807211846FFF7EAFE03461A460C
:10037C004FF40041364801F0FDF974E2334B9B8891
:10038C0000211846FFF7DCFE03461A4604213048CC
:10039C0001F0F0F92D4B9B8801211846FFF7D0FE98
:1003AC0003461A4608212A4801F0E4F9274B9B889A
:1003BC0002211846FFF7C4FE03461A464FF480612B
:1003CC00234801F0D7F9214B9B8803211846FFF7EE
:1003DC00B7FE03461A464FF400611D4801F0CAF9F6
:1003EC001A4B9B8804211846FFF7AAFE03461A46AF
:1003FC004FF48051164801F0BDF9144B9B88052130
:10040C001846FFF79DFE03461A464FF4005110485C
:10041C0001F0B0F90D4B9B8806211846FFF790FEB2
:10042C0003461A464FF48041094801F0A3F9074BE3
:10043C009B8807211846FFF783FE03461A464FF4A4
:10044C000041034801F096F90DE200BF0C000020BA
:10045C00000801409A4BDB8800211846FFF770FE1C
:10046C0003461A460421974801F084F9944BDB8823
:10047C0001211846FFF764FE03461A4608219148ED
:10048C0001F078F98E4BDB8802211846FFF758FEF5
:10049C0003461A464FF480618A4801F06BF9884B89
:1004AC00DB8803211846FFF74BFE03461A464FF430
:1004BC000061844801F05EF9814BDB880421184609
:1004CC00FFF73EFE03461A464FF480517D4801F07B
:1004DC0051F97B4BDB8805211846FFF731FE0346AB
:1004EC001A464FF40051774801F044F9744BDB88FD
:1004FC0006211846FFF724FE03461A464FF48041A6
:10050C00704801F037F96E4BDB8807211846FFF76E
:10051C0017FE03461A464FF400416A4801F02AF9C7
:10052C00A1E1674B1B8900211846FFF709FE034622
:10053C001A460421634801F01DF9614B1B89012106
:10054C001846FFF7FDFD03461A4608215D4801F0E9
:10055C0011F95B4B1B8902211846FFF7F1FD03468D
:10056C001A464FF48061574801F004F9544B1B892B
:10057C0003211846FFF7E4FD03461A464FF40061C9
:10058C00504801F0F7F84E4B1B8904211846FFF731
:10059C00D7FD03461A464FF480514A4801F0EAF859
:1005AC00474B1B8905211846FFF7CAFD03461A461F
:1005BC004FF40051434801F0DDF8414B1B890621F3
:1005CC001846FFF7BDFD03461A464FF480413D48DF
:1005DC0001F0D0F83A4B1B8907211846FFF7B0FD04
:1005EC0003461A464FF40041364801F0C3F83AE18D
:1005FC00334B5B8900211846FFF7A2FD03461A46D0
:10060C000421304801F0B6F82D4B5B8901211846C6
:10061C00FFF796FD03461A4608212A4801F0AAF86E
:10062C00274B5B8902211846FFF78AFD03461A46C1
:10063C004FF48061234801F09DF8214B5B89032125
:10064C001846FFF77DFD03461A464FF400611D481E
:10065C0001F090F81A4B5B8904211846FFF770FDE6
:10066C0003461A464FF48051164801F083F8144B98
:10067C005B8905211846FFF763FD03461A464FF4C4
:10068C000051104801F076F80D4B5B890621184695
:10069C00FFF756FD03461A464FF48041094801F016
:1006AC0069F8074B5B8907211846FFF749FD03469C
:1006BC001A464FF40041034801F05CF8D3E000BF48
:1006CC000C00002000080140694B9B890021184652
:1006DC00FFF736FD03461A460421664801F04AF836
:1006EC00634B9B8901211846FFF72AFD03461A46E6
:1006FC000821604801F03EF85D4B9B8902211846A9
:10070C00FFF71EFD03461A464FF48061594801F06D
:10071C0031F8574B9B8903211846FFF711FD03460F
:10072C001A464FF40061534801F024F8504B9B8952
:10073C0004211846FFF704FD03461A464FF4805176
:10074C004C4801F017F84A4B9B8905211846FFF7D6
:10075C00F7FC03461A464FF40051464801F00AF8DC
:10076C00434B9B8906211846FFF7EAFC03461A46C1
:10077C004FF480413F4800F0FDFF3D4B9B89072122
:10078C001846FFF7DDFC03461A464FF40041394882
:10079C0000F0F0FF67E0364BDB8900211846FFF7CD
:1007AC00CFFC03461A460421324800F0E3FF304BDD
:1007BC00DB8901211846FFF7C3FC03461A460821C2
:1007CC002C4800F0D7FF2A4BDB8902211846FFF793
:1007DC00B7FC03461A464FF48061264800F0CAFF66
:1007EC00234BDB8903211846FFF7AAFC03461A4664
:1007FC004FF400611F4800F0BDFF1D4BDB89042145
:10080C001846FFF79DFC03461A464FF480511948D1
:10081C0000F0B0FF164BDB8905211846FFF790FC62
:10082C0003461A464FF40051124800F0A3FF104B38
:10083C00DB8906211846FFF783FC03461A464FF462
:10084C0080410C4800F096FF094BDB8907211846C4
:10085C00FFF776FC03461A464FF40041054800F0BA
:10086C0089FF00E000BF00BF0837BD4680BD00BF58
:10087C000C0000200008014080B500AF514B1B68F4
:10088C00072B7BD801A252F823F000BFB90800084F
:10089C00D3080008ED080008070900082109000822
:1008AC003B090008550900086F09000800224FF4A5
:1008BC000041454800F05EFF01224FF48071424830
:1008CC0000F058FF5BE000224FF480713E4800F0CE
:1008DC0051FF01224FF400713B4800F04BFF4EE0FA
:1008EC0000224FF40071384800F044FF01224FF40D
:1008FC008061354800F03EFF41E000224FF48061FA
:10090C00314800F037FF01224FF400612E4800F00F
:10091C0031FF34E000224FF400612B4800F02AFF35
:10092C0001224FF48051284800F024FF27E00022D8
:10093C004FF48051244800F01DFF01224FF4005168
:10094C00214800F017FF1AE000224FF400511E4816
:10095C0000F010FF01224FF480411B4800F00AFF09
:10096C000DE000224FF48041174800F003FF0122F4
:10097C004FF40041144800F0FDFE00E000BF114BA5
:10098C001B681846FFF710FC0E4B1B6801330D4A11
:10099C0013600C4B1B680822934211DB094B00229D
:1009AC001A600A4B1B68591C094B83FB01235A1014
:1009BC00CB17D21A1346DB001344CA1A034B1A6026
:1009CC0000BF80BD58000020000C01405C000020DE
:1009DC00398EE33880B400AF1A4B1B681A4A82FB7D
:1009EC0003129210DB17D31A184A1360154B1968AF
:1009FC00154B83FB01239A10CB17D21A13469B007D
:100A0C0013445B00CA1A114B5A60114B1B680E4AF7
:100A1C0082FB03129210DB17D31A0C4A93600C4B17
:100A2C001968094B83FB01239A10CB17D21A134672
:100A3C009B0013445B00CA1A044BDA6000BFBD462E
:100A4C0080BC704700000020676666664800002086
:100A5C000400002080B582B000AF786001227F21B5
:100A6C00314800F087FE7B68092B53D801A252F85D
:100A7C0023F000BFA90A0008B50A0008C10A000843
:100A8C00CD0A0008D90A0008E50A0008F10A000896
:100A9C00FD0A0008090B0008150B000800223F2175
:100AAC00214800F067FE3BE0002206211E4800F0C2
:100ABC0061FE35E000225B211B4800F05BFE2FE05D
:100ACC0000224F21184800F055FE29E00022662133
:100ADC00154800F04FFE23E000226D21124800F073
:100AEC0049FE1DE000227D210F4800F043FE17E077
:100AFC00002207210C4800F03DFE11E000227F216E
:100B0C00094800F037FE0BE000226F21064800F088
:100B1C0031FE05E000224021034800F02BFE00BF0F
:100B2C0000BF0837BD4680BD000C014080B582B0C7
:100B3C0000AF786001224FF47071184800F01AFE73
:100B4C007B68032B24D801A252F823F0690B000810
:100B5C00750B0008810B00088F0B00080022402148
:100B6C000E4800F007FE14E0002280210B4800F034
:100B7C0001FE0EE000224FF48071084800F0FAFDEF
:100B8C0007E000224FF40071044800F0F3FD00E090
:100B9C0000BF00BF0837BD4680BD00BF0008014044
:100BAC0080B582B000AF78607B68032B2ED801A291
:100BBC0052F823F0D10B0008E30B0008F50B0008EA
:100BCC00070C00080020FFF7B1FF164B1B681846F6
:100BDC00FFF740FF21E00120FFF7A8FF114B5B68F6
:100BEC001846FFF737FF18E00220FFF79FFF0D4B69
:100BFC009B681846FFF72EFF0FE00320FFF796FFC8
:100C0C00084BDB681846FFF725FF06E001224FF47E
:100C1C007071054800F0AEFD00BF00BF0837BD463F
:100C2C0080BD00BF480000200008014080B500AF27
:100C3C00094B1B681846FFF7B3FF074B1B680133C2
:100C4C00054A1360044B1B680422934202DB024BDF
:100C5C0000221A6000BF80BD4400002080B582B025
:100C6C0000AF78607B681B68B3F1804F65D100F0F2
:100C7C00B3F9002000F094F90346002B05D019219C
:100C8C00002000F071F9FFF7D1FF012000F088F986
:100C9C000346002B07D04B21012000F065F91021F1
:100CAC00284800F07FFD022000F07AF90346002B63
:100CBC0007D03221022000F057F92021214800F002
:100CCC0071FD032000F06CF90346002B29D01E4B5C
:100CDC001B6801331C4A13601B4B1B683B2B07DD45
:100CEC00194B00221A60194B1B680133174A136009
:100CFC00164B1B683B2B07DD144B00221A60144B60
:100D0C001B680133124A1360114B1B68172B02DD51
:100D1C000F4B00221A60FFF75DFE6421032000F0E8
:100D2C0023F9042000F03CF90346002B05D00A21DE
:100D3C00042000F019F9FFF79FFD00BF0837BD46EE
:100D4C0080BD00BF00080140080000200400002006
:100D5C000000002080B500AF00F022FA00F020F86F
:100D6C0000F0A6F800F058F81921002000F0FCF86B
:100D7C004B21012000F0F8F83221022000F0F4F8A9
:100D8C006421032000F0F0F80A21042000F0ECF8B4
:100D9C00FFF720FE014801F04BF9FEE7B000002000
:100DAC0080B590B000AF07F1180328220021184637
:100DBC0001F0EEFC3B1D00221A605A609A60DA606A
:100DCC001A610223BB610123BB621023FB62002367
:100DDC007B6307F11803184600F0FEFC0346002B5A
:100DEC0001D000F0BBF80F237B600023BB60002315
:100DFC00FB6000233B6100237B613B1D00211846F7
:100E0C0000F06AFF0346002B01D000F0A7F800BFEA
:100E1C004037BD4680BD000080B586B000AF07F1FD
:100E2C00080300221A605A609A60DA603B4600227E
:100E3C001A605A601D4B4FF080421A601B4B41F6F2
:100E4C003F725A60194B00229A60184B0922DA60E3
:100E5C00164B00221A61154B00229A61134801F0BF
:100E6C0097F80346002B01D000F078F84FF480532C
:100E7C00BB6007F1080319460C4801F015FA03464C
:100E8C00002B01D000F06AF800233B6000237B604C
:100E9C003B461946054801F0EDFB0346002B01D0FB
:100EAC0000F05CF800BF1837BD4680BDB0000020D4
:100EBC0080B586B000AF07F1080300221A605A60B3
:100ECC009A60DA60224B9B69214A43F004039361D8
:100EDC001F4B9B6903F004037B607B681C4B9B6975
:100EEC001B4A43F008039361194B9B6903F00803F9
:100EFC003B603B6800224FF6FC71164800F03AFC50
:100F0C0000224FF67F71144800F034FC4FF6FC734E
:100F1C00BB600123FB6000233B6102237B6107F173
:100F2C00080319460B4800F0ABFA4FF67F73BB6011
:100F3C000123FB6000233B6102237B6107F1080363
:100F4C001946054800F09CFA00BF1837BD4680BD15
:100F5C000010024000080140000C014080B400AFBA
:100F6C0072B600BFFEE7000080B483B000AF7860BB
:100F7C0039607B68092B09DC07497B683A6841F8C2
:100F8C002320064A7B68002142F8231000BF0C374F
:100F9C00BD4680BC704700BF600000208800002068
:100FAC0080B483B000AF78607B68092B0CDC094AF5
:100FBC007B6852F82330012B06D1064A7B6800214E
:100FCC0042F82310012300E0002318460C37BD46DD
:100FDC0080BC70478800002080B483B000AF002331
:100FEC007B601CE0124A7B6852F82330002B13DD27
:100FFC000F4A7B6852F823305A1E0D497B6841F822
:10100C0023200B4A7B6852F82330002B04DC094A5E
:10101C007B68012142F823107B6801337B607B687D
:10102C00092BDFDD00BF00BF0C37BD4680BC70470D
:10103C00600000208800002080B485B000AF154B04
:10104C009B69144A43F001039361124B9B6903F0B3
:10105C000103BB60BB680F4BDB690E4A43F0805346
:10106C00D3610C4BDB6903F080537B607B680A4BCC
:10107C005B68FB60FB6823F0E063FB60FB6843F09C
:10108C008063FB60044AFB68536000BF1437BD46A5
:10109C0080BC7047001002400000014080B584B055
:1010AC0000AF78607B681B68B3F1804F13D10C4B99
:1010BC00DB690B4A43F00103D361094BDB6903F095
:1010CC000103FB60FB68002200211C2000F0A1F949
:1010DC001C2000F0BAF900BF1037BD4680BD00BF20
:1010EC000010024080B400AFFEE780B400AFFEE712
:1010FC0080B400AFFEE780B400AFFEE780B400AF71
:10110C00FEE780B400AF00BFBD4680BC704780B422
:10111C0000AF00BFBD4680BC704780B400AF00BFBD
:10112C00BD4680BC704780B500AF00F07FF800BFB3
:10113C0080BD000080B500AF024800F0C5FF00BFC5
:10114C0080BD00BFB000002080B400AF00BFBD4622
:10115C0080BC7047FFF7F8FF0B480C490C4A002382
:10116C0002E0D458C4500433C4188C42F9D3094A51
:10117C00094C002301E013600432A242FBD301F0BE
:10118C00E3FAFFF7E7FD704700000020280000207D
:10119C00F027000828000020FC000020FEE70000DB
:1011AC0080B500AF084B1B68074A43F0100313606F
:1011BC00032000F023F90F2000F008F8FFF73CFFA4
:1011CC000023184680BD00BF0020024080B582B0CD
:1011DC0000AF7860124B1A68124B1B7819464FF40B
:1011EC007A73B3FBF1F3B2FBF3F3184600F03BF95F
:1011FC000346002B01D001230EE07B680F2B0AD88D
:10120C00002279684FF0FF3000F003F9064A7B6842
:10121C001360002300E0012318460837BD4680BD4B
:10122C001C000020240000202000002080B400AF0F
:10123C00054B1B781A46054B1B681344034A136075
:10124C0000BFBD4680BC704724000020F800002081
:10125C0080B400AF024B1B681846BD4680BC70477B
:10126C00F800002080B485B000AF78607B6803F094
:10127C000703FB600C4BDB68BB60BA684FF6FF03DF
:10128C001340BB60FB681A02BB68134343F0BF6397
:10129C0043F40033BB60044ABB68D36000BF14370F
:1012AC00BD4680BC704700BF00ED00E080B400AFCD
:1012BC00044BDB681B0A03F007031846BD4680BCD1
:1012CC00704700BF00ED00E080B483B000AF034670
:1012DC00FB7197F90730002B0BDBFB7903F01F0236
:1012EC00064997F907305B09012000FA02F241F830
:1012FC00232000BF0C37BD4680BC704700E100E0E6
:10130C0080B483B000AF03463960FB7197F90730A6
:10131C00002B0ADB3B68DAB20C4997F90730120153
:10132C00D2B20B4483F800230AE03B68DAB20849D6
:10133C00FB7903F00F03043B1201D2B20B441A7673
:10134C0000BF0C37BD4680BC704700BF00E100E019
:10135C0000ED00E080B489B000AFF860B9607A604D
:10136C00FB6803F00703FB61FB69C3F10703042B64
:10137C0028BF0423BB61FB690433062B02D9FB692C
:10138C00033B00E000237B614FF0FF32BB6902FAA4
:10139C0003F3DA43BB681A407B699A404FF0FF3184
:1013AC007B6901FA03F3D9437B680B40134318465E
:1013BC002437BD4680BC704780B582B000AF7860E2
:1013CC007B68013BB3F1807F01D301230FE00A4A14
:1013DC007B68013B53600F214FF0FF30FFF790FF0C
:1013EC00054B00229A60044B07221A600023184612
:1013FC000837BD4680BD00BF10E000E080B582B06C
:10140C0000AF78607868FFF72DFF00BF0837BD4646
:10141C0080BD80B586B000AF0346B9607A60FB73BF
:10142C0000237B61FFF742FF78617A68B9687869BD
:10143C00FFF790FF024697F90F3011461846FFF759
:10144C005FFF00BF1837BD4680BD80B582B000AFCE
:10145C000346FB7197F907301846FFF735FF00BFBD
:10146C000837BD4680BD80B582B000AF7860786823
:10147C00FFF7A2FF034618460837BD4680BD0000A3
:10148C0080B48BB000AF7860396000237B6200239E
:10149C003B6248E101227B6A02FA03F3FB613B6881
:1014AC001B68FA691340BB61BA69FB699A4240F048
:1014BC0037813B685B68A34A93425ED0A14A934252
:1014CC0075D8A14A934258D09F4A93426FD89F4AED
:1014DC00934252D09D4A934269D89D4A93424CD034
:1014EC009B4A934263D89B4A934246D0994A934273
:1014FC005DD8122B2AD8122B59D801A252F823F0FE
:10150C00871500086115000873150008B51500084B
:10151C00BB150008BB150008BB150008BB1500085F
:10152C00BB150008BB150008BB150008BB1500084F
:10153C00BB150008BB150008BB150008BB1500083F
:10154C00BB150008691500087D150008824A9342F6
:10155C0013D02CE03B68DB683B6229E03B68DB681E
:10156C0004333B6224E03B68DB6808333B621FE0DA
:10157C003B68DB680C333B621AE03B689B68002BD2
:10158C0002D104233B6213E03B689B68012B05D11D
:10159C0008233B627B68FA691A6109E008233B6205
:1015AC007B68FA695A6103E000233B6200E000BFEC
:1015BC00BB69FF2B01D87B6801E07B6804337B613E
:1015CC00BB69FF2B02D87B6A9B0002E07B6A083B5D
:1015DC009B003B617B691A680F213B6901FA03F39D
:1015EC00DB431A40396A3B6901FA03F31A437B69FE
:1015FC001A603B685B6803F08053002B00F090800E
:10160C00564B9B69554A43F001039361534B9B69BD
:10161C0003F00103BB60BB68514A7B6A9B08023331
:10162C0052F82330FB607B6A03F003039B000F220C
:10163C0002FA03F3DB43FA681340FB607B68494A08
:10164C0093420DD07B68484A934207D07B68474A47
:10165C00934201D1022304E0032302E0012300E0C2
:10166C0000237A6A02F0030292009340FA68134353
:10167C00FB603B497B6A9B080233FA6841F82320E4
:10168C003B685B6803F48013002B06D0384B9A68D8
:10169C003749BB6913438B6006E0354B9A68BB69CD
:1016AC00DB43334913408B603B685B6803F40013E6
:1016BC00002B06D02E4BDA682D49BB691343CB6047
:1016CC0006E02B4BDA68BB69DB4329491340CB603E
:1016DC003B685B6803F40033002B06D0244B5A683C
:1016EC002349BB6913434B6006E0214B5A68BB6925
:1016FC00DB431F4913404B603B685B6803F480334A
:10170C00002B06D01A4B1A681949BB6913430B609E
:10171C0006E0174B1A68BB69DB43154913400B6095
:10172C007B6A01337B623B681A687B6A22FA03F39B
:10173C00002B7FF4AFAE00BF00BF2C37BD4680BC82
:10174C00704700BF00003210000031100000221062
:10175C0000002110000012100000111000100240B7
:10176C000000014000080140000C01400010014045
:10177C000004014080B483B000AF78600B467B80DE
:10178C0013467B707B78002B03D07A887B681A61B8
:10179C0003E07B881A047B681A6100BF0C37BD46D6
:1017AC0080BC704780B485B000AF78600B467B80FE
:1017BC007B68DB68FB607A88FB6813401A04FB6863
:1017CC00D9437B880B401A437B681A6100BF1437DE
:1017DC00BD4680BC7047000080B586B000AF786015
:1017EC007B68002B01D101236CE27B681B6803F042
:1017FC000103002B00F08780924B5B6803F00C0315
:10180C00042B0CD08F4B5B6803F00C03082B12D10C
:10181C008C4B5B6803F48033B3F5803F0BD1894B61
:10182C001B6803F40033002B6CD07B685B68002BC7
:10183C0068D1012346E27B685B68B3F5803F06D133
:10184C00804B1B687F4A43F4803313602EE07B6827
:10185C005B68002B0CD17B4B1B687A4A23F48033DA
:10186C001360784B1B68774A23F4802313601DE0C8
:10187C007B685B68B3F5A02F0CD1724B1B68714A67
:10188C0043F4802313606F4B1B686E4A43F4803320
:10189C0013600BE06B4B1B686A4A23F480331360B4
:1018AC00684B1B68674A23F4802313607B685B6872
:1018BC00002B13D0FFF7CCFC386108E0FFF7C8FC15
:1018CC0002463B69D31A642B01D90323FAE15D4B21
:1018DC001B6803F40033002BF0D014E0FFF7B8FCC6
:1018EC00386108E0FFF7B4FC02463B69D31A642B5D
:1018FC0001D90323E6E1534B1B6803F40033002B9F
:10190C00F0D100E000BF7B681B6803F00203002BE2
:10191C0063D04C4B5B6803F00C03002B0BD0494B92
:10192C005B6803F00C03082B1CD1464B5B6803F47B
:10193C008033002B16D1434B1B6803F00203002BA2
:10194C0005D07B681B69012B01D00123BAE13D4B0B
:10195C001B6823F0F8027B685B69DB003949134391
:10196C000B603AE07B681B69002B20D0364B0122C0
:10197C001A60FFF76DFC386108E0FFF769FC02465E
:10198C003B69D31A022B01D903239BE12D4B1B6816
:10199C0003F00203002BF0D02A4B1B6823F0F80253
:1019AC007B685B69DB00274913430B6015E0264B12
:1019BC0000221A60FFF74CFC386108E0FFF748FC86
:1019CC0002463B69D31A022B01D903237AE11D4B42
:1019DC001B6803F00203002BF0D17B681B6803F03B
:1019EC000803002B3AD07B689B69002B19D0174B4E
:1019FC0001221A60FFF72CFC386108E0FFF728FC85
:101A0C0002463B69D31A022B01D903235AE10D4B31
:101A1C005B6A03F00203002BF0D0012000F09AFA6D
:101A2C001CE00A4B00221A60FFF712FC38610FE031
:101A3C00FFF70EFC02463B69D31A022B08D903238D
:101A4C0040E100BF001002400000424280044242CC
:101A5C009E4B5B6A03F00203002BE9D17B681B6889
:101A6C0003F00403002B00F0A6800023FB75974BBA
:101A7C00DB6903F08053002B0DD1944BDB69934A47
:101A8C0043F08053D361914BDB6903F08053BB600F
:101A9C00BB680123FB758E4B1B6803F48073002B12
:101AAC0018D18B4B1B688A4A43F480731360FFF781
:101ABC00CFFB386108E0FFF7CBFB02463B69D31A3A
:101ACC00642B01D90323FDE0814B1B6803F4807365
:101ADC00002BF0D07B68DB68012B06D17B4B1B6A9B
:101AEC007A4A43F0010313622DE07B68DB68002B1C
:101AFC000CD1764B1B6A754A23F001031362734BAE
:101B0C001B6A724A23F0040313621CE07B68DB68D7
:101B1C00052B0CD16D4B1B6A6C4A43F0040313620A
:101B2C006A4B1B6A694A43F0010313620BE0674B73
:101B3C001B6A664A23F001031362644B1B6A634AF7
:101B4C0023F0040313627B68DB68002B15D0FFF7CE
:101B5C007FFB38610AE0FFF77BFB02463B69D31A37
:101B6C0041F28832934201D90323ABE0574B1B6AF5
:101B7C0003F00203002BEED014E0FFF769FB386191
:101B8C000AE0FFF765FB02463B69D31A41F2883243
:101B9C00934201D9032395E04C4B1B6A03F00203DB
:101BAC00002BEED1FB7D012B05D1484BDB69474A5D
:101BBC0023F08053D3617B68DB69002B00F08180BC
:101BCC00424B5B6803F00C03082B61D07B68DB692C
:101BDC00022B46D13F4B00221A60FFF739FB3861CC
:101BEC0008E0FFF735FB02463B69D31A022B01D9FB
:101BFC00032367E0354B1B6803F00073002BF0D117
:101C0C007B681B6AB3F5803F08D1304B5B6823F4CB
:101C1C0000327B689B682D4913434B602B4B5B68F0
:101C2C0023F474127B68196A7B685B6A0B4327493F
:101C3C0013434B60274B01221A60FFF709FB3861F5
:101C4C0008E0FFF705FB02463B69D31A022B01D9CA
:101C5C00032337E01D4B1B6803F00073002BF0D0FF
:101C6C002FE01C4B00221A60FFF7F2FA386108E0F3
:101C7C00FFF7EEFA02463B69D31A022B01D9032374
:101C8C0020E0124B1B6803F00073002BF0D118E01E
:101C9C007B68DB69012B01D1012313E00B4B5B68E3
:101CAC00FB60FB6803F480327B681B6A9A4206D1A6
:101CBC00FB6803F470127B685B6A9A4201D00123C3
:101CCC0000E0002318461837BD4680BD00100240C6
:101CDC00007000406000424280B584B000AF786074
:101CEC0039607B68002B01D10123D0E06A4B1B6863
:101CFC0003F007033A689A4210D9674B1B6823F02C
:101D0C00070265493B6813430B60634B1B6803F088
:101D1C0007033A689A4201D00123B8E07B681B683C
:101D2C0003F00203002B20D07B681B6803F0040334
:101D3C00002B05D0594B5B68584A43F4E063536061
:101D4C007B681B6803F00803002B05D0534B5B68C2
:101D5C00524A43F460535360504B5B6823F0F002DB
:101D6C007B689B684D4913434B607B681B6803F091
:101D7C000103002B40D07B685B68012B07D1474BDC
:101D8C001B6803F40033002B15D101237FE07B6823
:101D9C005B68022B07D1414B1B6803F00073002BCF
:101DAC0009D1012373E03D4B1B6803F00203002BA8
:101DBC0001D101236BE0394B5B6823F003027B6894
:101DCC005B68364913434B60FFF742FAF8600AE050
:101DDC00FFF73EFA0246FB68D31A41F2883293426F
:101DEC0001D9032353E02D4B5B6803F00C027B6895
:101DFC005B689B009A42EBD1274B1B6803F00703EF
:101E0C003A689A4210D2244B1B6823F007022249ED
:101E1C003B6813430B60204B1B6803F007033A68C5
:101E2C009A4201D0012332E07B681B6803F0040363
:101E3C00002B08D0194B5B6823F4E0627B68DB68ED
:101E4C00164913434B607B681B6803F00803002B97
:101E5C0009D0124B5B6823F460527B681B69DB0072
:101E6C000E4913434B6000F021F802460B4B5B68A4
:101E7C001B0903F00F030A49CB5C22FA03F3094A4E
:101E8C001360094B1B681846FFF7A0F9002318468E
:101E9C001037BD4680BD00BF00200240001002403C
:101EAC00C42700081C0000202000002080B487B04C
:101EBC0000AF0023FB600023BB6000237B61002389
:101ECC007B6000233B611E4B5B68FB60FB6803F08F
:101EDC000C03042B02D0082B03D027E0194B3B61D9
:101EEC0027E0FB689B0C03F00F03174AD35C7B6065
:101EFC00FB6803F48033002B10D0114B5B685B0C38
:101F0C0003F00103114AD35CBB607B680D4A02FBF2
:101F1C0003F2BB68B2FBF3F37B6104E07B680C4A11
:101F2C0002FB03F37B617B693B6102E0054B3B6188
:101F3C0000BF3B6918461C37BD4680BC704700BFCC
:101F4C000010024000127A00D4270008E427000891
:101F5C0000093D0080B485B000AF78600A4B1B6867
:101F6C000A4AA2FB03235B0A7A6802FB03F3FB60B9
:101F7C0000BFFB685A1EFA60002BF9D100BF00BFEE
:101F8C001437BD4680BC70471C000020D34D621036
:101F9C0080B582B000AF78607B68002B01D1012343
:101FAC0041E07B6893F83D30DBB2002B06D17B68B7
:101FBC00002283F83C207868FFF770F87B680222D7
:101FCC0083F83D207B681A687B68043319461046F9
:101FDC0000F056FA7B68012283F846207B680122C8
:101FEC0083F83E207B68012283F83F207B68012226
:101FFC0083F840207B68012283F841207B68012212
:10200C0083F842207B68012283F843207B680122FD
:10201C0083F844207B68012283F845207B680122E9
:10202C0083F83D20002318460837BD4680BD0000CC
:10203C0080B485B000AF78607B6893F83D30DBB23C
:10204C00012B01D0012335E07B68022283F83D206F
:10205C007B681B68DA687B681B6842F00102DA60F7
:10206C007B681B68164A934209D07B681B68B3F1E6
:10207C00804F04D07B681B68124A934211D17B6855
:10208C001B689B6803F00703FB60FB68062B10D0F2
:10209C007B681B681A687B681B6842F001021A6037
:1020AC0007E07B681B681A687B681B6842F00102BA
:1020BC001A60002318461437BD4680BC704700BF19
:1020CC00002C01400004004080B584B000AF786063
:1020DC007B681B68DB68FB607B681B681B69BB60EB
:1020EC00BB6803F00203002B20D0FB6803F0020353
:1020FC00002B1BD07B681B686FF002021A617B6897
:10210C0001221A777B681B689B6903F00303002B81
:10211C0003D0786800F098F905E0786800F08BF946
:10212C00786800F09AF97B6800221A77BB6803F094
:10213C000403002B20D0FB6803F00403002B1BD0FE
:10214C007B681B686FF004021A617B6802221A77A5
:10215C007B681B689B6903F44073002B03D0786881
:10216C0000F072F905E0786800F065F9786800F025
:10217C0074F97B6800221A77BB6803F00803002B04
:10218C0020D0FB6803F00803002B1BD07B681B6876
:10219C006FF008021A617B6804221A777B681B684F
:1021AC00DB6903F00303002B03D0786800F04CF9D3
:1021BC0005E0786800F03FF9786800F04EF97B682C
:1021CC0000221A77BB6803F01003002B20D0FB68A9
:1021DC0003F01003002B1BD07B681B686FF0100200
:1021EC001A617B6808221A777B681B68DB6903F429
:1021FC004073002B03D0786800F026F905E078686E
:10220C0000F019F9786800F028F97B6800221A7739
:10221C00BB6803F00103002B0CD0FB6803F0010337
:10222C00002B07D07B681B686FF001021A6178687D
:10223C00FEF714FDBB6803F08003002B0CD0FB6889
:10224C0003F08003002B07D07B681B686FF08002C3
:10225C001A61786800F06FFABB6803F04003002B3A
:10226C000CD0FB6803F04003002B07D07B681B6885
:10227C006FF040021A61786800F0F8F8BB6803F060
:10228C002003002B0CD0FB6803F02003002B07D09D
:10229C007B681B686FF020021A61786800F042FAC4
:1022AC0000BF1037BD4680BD80B584B000AF7860EC
:1022BC0039600023FB737B6893F83C30012B01D110
:1022CC000223B4E07B68012283F83C207B68022265
:1022DC0083F83D207B681B689B68BB60BB6823F060
:1022EC007703BB60BB6823F47F43BB607B681B68D0
:1022FC00BA689A603B681B68B3F5005F3ED0B3F5D3
:10230C00005F00F28780B3F5805F00F08680B3F544
:10231C00805F7FD8702B1AD0702B7BD8602B50D05D
:10232C00602B77D8502B3CD0502B73D8402B58D0E7
:10233C00402B6FD8302B64D0302B6BD8202B60D037
:10234C00202B67D8002B5CD0102B5AD062E07B6816
:10235C0018683B6899683B685A683B68DB6800F012
:10236C006AF97B681B689B68BB60BB6843F07703AA
:10237C00BB607B681B68BA689A604FE07B68186822
:10238C003B6899683B685A683B68DB6800F053F916
:10239C007B681B689A687B681B6842F480429A6071
:1023AC003CE07B6818683B6859683B68DB681A46F8
:1023BC0000F0CAF87B681B685021184600F021F920
:1023CC002CE07B6818683B6859683B68DB681A46E8
:1023DC0000F0E8F87B681B686021184600F011F9E2
:1023EC001CE07B6818683B6859683B68DB681A46D8
:1023FC0000F0AAF87B681B684021184600F001F930
:10240C000CE07B681A683B681B681946104600F0A4
:10241C00F8F803E00123FB7300E000BF7B680122A6
:10242C0083F83D207B68002283F83C20FB7B184618
:10243C001037BD4680BD80B483B000AF786000BF5C
:10244C000C37BD4680BC704780B483B000AF786059
:10245C0000BF0C37BD4680BC704780B483B000AF62
:10246C00786000BF0C37BD4680BC704780B483B029
:10247C0000AF786000BF0C37BD4680BC70470000D1
:10248C0080B485B000AF786039607B681B68FB60F6
:10249C007B682B4A934207D07B68B3F1804F03D003
:1024AC007B68284A934208D1FB6823F07003FB60D9
:1024BC003B685B68FA681343FB607B68204A934275
:1024CC0007D07B68B3F1804F03D07B681D4A9342E1
:1024DC0008D1FB6823F44073FB603B68DB68FA6847
:1024EC001343FB60FB6823F080023B685B6913437A
:1024FC00FB607B68FA681A603B689A687B68DA62F2
:10250C003B681A687B689A627B680D4A934203D1D8
:10251C003B681A697B681A637B6801225A617B6885
:10252C001B6903F00103002B05D07B681B6923F0AA
:10253C0001027B681A6100BF1437BD4680BC70472E
:10254C00002C01400004004080B487B000AFF8605C
:10255C00B9607A60FB681B6A7B61FB681B6A23F0BD
:10256C000102FB681A62FB689B693B613B6923F0C3
:10257C00F0033B617B681B013A6913433B617B6948
:10258C0023F00A037B617A69BB6813437B61FB68A8
:10259C003A699A61FB687A691A6200BF1C37BD46BA
:1025AC0080BC704780B487B000AFF860B9607A60C7
:1025BC00FB681B6A7B61FB681B6A23F01002FB68DB
:1025CC001A62FB689B693B613B6923F470433B6176
:1025DC007B681B033A6913433B617B6923F0A003BF
:1025EC007B61BB681B017A6913437B61FB683A69A9
:1025FC009A61FB687A691A6200BF1C37BD4680BCC1
:10260C00704780B485B000AF786039607B689B6898
:10261C00FB60FB6823F07003FB603A68FB681343B4
:10262C0043F00703FB607B68FA689A6000BF1437BD
:10263C00BD4680BC704780B487B000AFF860B9600D
:10264C007A603B60FB689B687B617B6923F47F430A
:10265C007B613B681A027B681A43BB6813437A6937
:10266C0013437B61FB687A699A6000BF1C37BD46D7
:10267C0080BC704780B485B000AF786039607B68EF
:10268C0093F83C30012B01D1022341E07B680122FD
:10269C0083F83C207B68022283F83D207B681B6812
:1026AC005B68FB607B681B689B68BB60FB6823F006
:1026BC007003FB603B681B68FA681343FB607B6824
:1026CC001B68FA685A607B681B68144A934209D0ED
:1026DC007B681B68B3F1804F04D07B681B68104A81
:1026EC0093420CD1BB6823F08003BB603B685B68F2
:1026FC00BA681343BB607B681B68BA689A607B68D6
:10270C00012283F83D207B68002283F83C200023C3
:10271C0018461437BD4680BC704700BF002C0140E2
:10272C000004004080B483B000AF786000BF0C3769
:10273C00BD4680BC704780B483B000AF786000BFEA
:10274C000C37BD4680BC704770B500260C4D0D4C47
:10275C00641BA410A64209D100F022F800260A4DF1
:10276C000A4C641BA410A64205D170BD55F8043B5D
:10277C0098470136EEE755F8043B98470136F2E7E7
:10278C00E8270008E8270008E8270008EC270008DD
:10279C0003460244934200D1704703F8011BF9E74A
:1027AC00F8B500BFF8BC08BC9E467047F8B500BF32
:0827BC00F8BC08BC9E46704702
:1027C40000000000000000000102030406070809DD
:1027D40002030405060708090A0B0C0D0E0F10105E
:0427E40001020000EE
:0427E80031010008B3
:0427EC000D010008D3
:1027F0000F00000008000000320000000018002454
:1028000000420042007E00420042004200127A0074
:082810001000000001000000AF
:04000005080011617D
:00000001FF
